:020000040000FA
:1000000040180020250200004902000009020000FB
:100010004D0200004F0200005102000000000000ED
:10002000000000000000000000000000530200007B
:1000300055020000000000005702000059020000B5
:100040005B0200005B0200005B0200005B0200003C
:100050005B0200005B0200005B0200005B0200002C
:100060005B0200005B0200005B0200005B0200001C
:100070005B0200005B0200005B0200005B0200000C
:100080005B0200005B0200005B0200005B020000FC
:100090005B0200005B0200005B0200005B020000EC
:1000A0005B0200005B0200005B0200005B020000DC
:1000B0005B0200005B0200005B0200005B020000CC
:1000C0005B020000F11500005B0200005B02000013
:1000D000311600005B0200005B0200005B020000C2
:1000E0005B0200005B0200005B0200005B0200009C
:1000F0005B0200005B0200005B0200005B0200008C
:100100005B0200005B0200005B0200005B0200007B
:100110005B0200005B0200005B0200005B0200006B
:100120005B0200005B0200005B0200005B0200005B
:100130005B0200005B0200005B0200005B0200004B
:100140005B0200005B0200005B0200005B0200003B
:100150005B0200005B0200005B0200005B0200002B
:100160005B0200005B0200005B0200005B0200001B
:100170005B0200005B0200005B0200005B0200000B
:100180005B0200005B0200005B0200005B020000FB
:100190005B0200005B0200005B0200005B020000EB
:1001A0005B0200005B0200005B0200005B020000DB
:1001B0005B0200005B0200005B0200005B020000CB
:1001C0005B0200005B0200005B0200005B020000BB
:1001D0005B0200005B0200005B0200005B020000AB
:1001E0005B0200005B0200005B0200005B0200009B
:1001F0005B020000DFF80CD000F08CF800480047EC
:10020000E91E00004018002004207146084202D078
:10021000EFF3098001E0EFF308807146004A1047D0
:10022000610800000D484FF0590101604FF01601C0
:1002300001604FF0880101600948804707484FF08E
:100240000001016007480047FEE7FEE7FEE7FEE722
:10025000FEE7FEE7FEE7FEE7FEE7FEE700010040FF
:1002600099140000F501000040EA01039B0703D048
:1002700009E008C9121F08C0042AFAD203E011F8E5
:10028000013B00F8013B521EF9D27047D2B201E0A7
:1002900000F8012B491EFBD270470022F6E710B58B
:1002A00013460A4604461946FFF7F0FF204610BDE4
:1002B0002DE9F05F0546002092469B46884606469B
:1002C000814640241BE0284641464746224600F02E
:1002D00042F853465A46C01A914110D31146184667
:1002E000224600F029F82D1A67EB01084F462246F6
:1002F0000120002100F020F817EB00094E41201EDC
:10030000A4F10104DFDC484631462A464346BDE8F5
:10031000F09F0000064C074D06E0E06840F0010346
:1003200094E8070098471034AC42F6D3FFF766FF15
:100330007023000090230000202A04DB203A00FAFA
:1003400002F1002070479140C2F1200320FA03F32C
:10035000194390407047202A04DB203A21FA02F02A
:100360000021704721FA02F3D040C2F120029140EF
:100370000843194670474FF08040D0F8401241F4CE
:100380008031C0F84012704700F01F0201219140F7
:10039000034A800F02EB800002680A430260704744
:1003A000040200402DE9F84F0C460646FFF7E3FF34
:1003B0004FF080404A4DD0F80012BEB141F0040128
:1003C000C0F80012102000F00BFA4FF4002086460F
:1003D000444845492044884271D84FF0000B4FF003
:1003E000FF33DA46D9460120009415E041F00101BF
:1003F000C0F80012012000F0F3F90020E7E7EBB3AA
:10040000032859D0042802D0022805D102E000991F
:100410008C0001E000994C00022200E05BB3B5FBC8
:10042000F2F63249771849428F4221D80221C6F3A9
:100430005D0700BFDFF8ACC007FB01F606EB0C0858
:10044000DFF8ACC0E0450ED8B6EB940F02D9A6EBAE
:10045000940601E0C6EB94069E4204D23300934614
:100460008A46814604D040F20126491CB142E1D9B6
:10047000521C202AD2D9401C042800E000E0BED93A
:100480001C4901EB89304A1140EA0E0002EB4B2176
:100490000843AAF1020108434FF08041C1F840022D
:1004A000042000F09DF909FB0BF0B5FBF0F000FB18
:1004B0000AF04000BDE8F88F0420A0E7FFE766B12E
:1004C0000D4900BF4FF08040C0F84012042000F0FA
:1004D00087F9BDE8F84F00F09DB844F21E21F1E71E
:1004E000001BB700800F05FD8074D21A00F7C2FF11
:1004F000C068780400C0FFFF1E4208004FF0804132
:10050000D1F800220243C1F80022704710B500F074
:100510009FFF0148006810BD000000204FF08040A0
:10052000D0F80002C00700D000487047001BB70099
:100530004FF08040D0F80002800702D54FF4004011
:10054000704700207047000010B500F081FF4FF0A9
:100550008041D1F834024207134817D0D1F8342231
:1005600002F00702012A13D0D1F8342202F0070268
:10057000022A10D0D1F8342202F00702032A0DD04B
:10058000D1F8341201F0070104290AD0006810BD27
:100590000068400810BD0068800810BD0068C008F1
:1005A00010BD0068000910BD0000002010B500F06B
:1005B0004FFF4FF08041D1F8340210F0700F144813
:1005C00017D0D1F83422C2F30212012A13D0D1F885
:1005D0003422C2F30212022A10D0D1F83422C2F31C
:1005E0000212032A0DD0D1F83412C1F302110429EA
:1005F0000AD0006810BD0068400810BD006880087F
:1006000010BD0068C00810BD0068000910BD0000E2
:100610000000002008B510A10020096800914FF0EB
:100620008041D1F8401211F4A02F13D10B488A0356
:1006300010D4C1F30800C1F38132094B801C1DF8AE
:100640000220C1F344215843491C11FB02F1B0FBC5
:10065000F1F0C00008BD000001020204001BB70059
:10066000C0C62D0070B54FF080440546D4F8500246
:1006700000F010061B48854200D90546D4F8000258
:1006800040F00400C4F80002102004F5007400F0EB
:10069000A7F8206940F007002061206A20F00F00D1
:1006A00020622068A4F50074C007294604D0002009
:1006B000FFF778FE054608E04FF40020FFF772FED2
:1006C0000546D4F8500200F010060021022000F088
:1006D0000BF82EB9D4F8000220F00400C4F8000290
:1006E000284670BD00B0710B2DE9F0414FF08044F9
:1006F0000746D4F850020E4600F01005D4F8000268
:1007000040F00400C4F80002102004F5007400F06A
:1007100067F8206940F007002061206A20F00F0090
:1007200030432062206920F0070038432061A4F59F
:10073000007400F08DFE002D05D1D4F8000220F0E9
:100740000400C4F80002BDE8F0810000F0B510F428
:100750007F3F2ED04FF08043D3F8F4311E4E03F08C
:10076000FF0C1D4B371D0C3BC0F381446FEA9045D5
:1007700003EB8403BCF1010F02D0022C0DD001E089
:10078000022C02D0AC070AD00AE0C343DC06134BAC
:1007900006D000F01F041D2C02D0334600E03B467B
:1007A0001C68C0F38725C0F34416B540AC4314431E
:1007B0001C60420E52070ED0084BC0F30172183B6A
:1007C00003EB82021368C0F34264C0F30450844018
:1007D000A3430B431360F0BD2C02004028020040ED
:1007E000014610B50120074A830705E0141EA2F157
:1007F000010201DC002010BDD3F8504231EA0404AC
:10080000F4D110BD80F5200010B5094C012211462D
:10081000204600F00FF801220221204600F00AF8DD
:1008200020460122BDE81040042100F003B800007A
:10083000C0410040F0B500230124032604FA03F56B
:100840008D4309D107685D0006FA05FC27EA0C070D
:1008500002FA05F52F4307605B1C102BEED3F0BDA9
:10086000044603A001F062F8204601F0FDFCFEE71B
:10087000496E2048617264204661756C742048613D
:100880006E646C65720A000000F01F020121914045
:100890004009800000F1E020C0F80011704700001E
:1008A000BFF34F8F05480168054A01F4E061114329
:1008B0000160BFF34F8F00BFFDE700000CED00E0CB
:1008C0000400FA05F0B5114CDDE90575266826F43B
:1008D000400646F400062660266826F07F463E4322
:1008E0002660266826F0200601B1012146EA411162
:1008F000216023636263A063606840F00100606070
:10090000002D02D06068C007FCD1F0BD007000402F
:100910002DE9FF4F83B01D4616460746C1B252FA75
:1009200087F24FF4807B0120DDF840905A4509D8CA
:10093000CDE9009032463846049900F027FB07B015
:10094000BDE8F08FCDE90090C1F580748246224663
:100950003846049900F01AFB07EB0408361B0EE03A
:100960005F46BE4200D23746CDE9009A2B193A467F
:100970004046049900F00AFBB844F61B3C44002EA4
:10098000EED1DCE77CB505460E460A464FF0FF3453
:100990000321684600F0F8F99DF800007F280ED08A
:1009A00004DC012810D01C283ED103E0C22801D06D
:1009B000EF2839D19DF8020019280AD234E09DF8B9
:1009C0000200492805D22FE03146284600F048FAB7
:1009D00000249DF80000012826D00DB1B72000E0CA
:1009E000E920124C8DF80400606820F0100060606F
:1009F000304600F011FD012101A801F0CFFB606835
:100A000040F0100060609DF80000C2280BD02DB1AE
:100A1000304600F053F90028FAD004E0304600F0E8
:100A20004DF90028FAD1002420467CBD007000401A
:100A30000C4B10B51C6824F0200400B1012044EADE
:100A400040101860186820F07F400843186058680C
:100A500020F4706040EA02205860186840F44000BA
:100A6000186010BD007000402DE9FF410D4604469E
:100A700098461746194601200A9E01F051FB8DF851
:100A80000070C4F30742C4F30721E0B255B1230E4E
:100A90008DF801308DF802208DF803108DF80400D8
:100AA000052506E08DF801208DF802108DF8030071
:100AB00004250B4C606820F010006060404600F098
:100AC000ABFC2946684601F069FB606840F0100005
:100AD0006060002E02D0404601F03EFBBDE8FF8181
:100AE000007000400248016821F440010160704735
:100AF0000070004038B500F053FC194C606880B2BB
:100B000040F400306060E06820F4E020E060E068DD
:100B100040F48010E060A06C124920F0F8500843C7
:100B2000A064012000F046F810B10FA000F0FEFE16
:100B300001220321684600F027F99DF802309DF854
:100B400001209DF8001010A000F0F0FE606820F079
:100B500004006060606820F00200606038BD000042
:100B600000700040000001085350494D20666C6140
:100B7000736820696E697469616C697A6520666161
:100B8000696C6564210A00005350494D2067657403
:100B9000204A454445432049443D30782530325869
:100BA0002C203078253032582C203078253032589F
:100BB0000A0000002DE9FE433E4C80464FF0FF3511
:100BC000606820F02000606066268DF80060606834
:100BD00020F010006060206820F4421040F4021001
:100BE00020600121684601F0D9FA606840F01000E9
:100BF000606099278DF80070606820F010006060D8
:100C0000206820F4421040F4021020600121684660
:100C100001F0C4FA606840F0100060608DF8006078
:100C2000606820F010006060206820F4421040F4FA
:100C3000004020600121684601F0B0FA606840F091
:100C4000100060608DF80070606820F01000606037
:100C5000206820F4421040F40040206001216846E2
:100C600001F09CFA606840F010006060B8F1000F7D
:100C70000DD0002001210290084601F051FA012216
:100C8000114602A800F0D0F9012001F065FA012216
:100C9000032101A800F078F8074A9DF8040000211C
:100CA000535C984200D10025491C0529F8D32846F9
:100CB000BDE8FE830070004030000020FEB5054610
:100CC00002460026032101A800F05EF89DF804000A
:100CD0001C2805D07F284ED0C22801D0EF284AD149
:100CE0009DF80610192946D3244CEF2804D0C228B9
:100CF00022D01C2820D03EE021A06F460068029040
:100D00006068012620F010006060284600F084FB37
:100D1000012102A801F042FA284600F063FB3146A7
:100D2000384601F09FF9606840F0100060609DF85F
:100D3000000000F001061EE012A06F46006802905D
:100D40006068012620F010006060284600F064FB17
:100D5000012102A801F022FA284600F043FB3146A7
:100D6000384601F07FF9606840F0100060609DF83F
:100D70000000C0F380063046FEBD00000070004059
:100D8000150000002B000000F8B506460EA00F4C21
:100D90000068009060680D46174620F01000606003
:100DA000104600F039FB0121684601F0F7F938469A
:100DB00000F018FB2946304601F054F9606840F015
:100DC00010006060F8BD00009F000000007000404F
:100DD000F8B506460EA00F4C0068009060680D46FE
:100DE000174620F010006060104600F015FB01214E
:100DF000684601F0D3F9384600F0F4FA2946304647
:100E000001F030F9606840F010006060F8BD00004B
:100E10000500000000700040F8B506460EA00F4C1B
:100E20000068009060680D46174620F01000606072
:100E3000104600F0F1FA0121684601F0AFF938469A
:100E400000F0D0FA2946304601F00CF9606840F015
:100E500010006060F8BD0000350000000070004028
:100E60007CB505461B4C16208DF80000606820F00C
:100E700010006060084600F0CFFA0121684601F0DA
:100E80008DF9012000F0AEFA012101A801F0EAF885
:100E9000606840F01000606017208DF800009DF839
:100EA000040015B140F0800001E020F080008DF8D2
:100EB0000100606820F010006060012000F0ACFAD2
:100EC0000221684601F06AF9606840F01000606035
:100ED0007CBD0000007000407CB504460E460A460A
:100EE000032101A8FFF750FF9DF804007F2835D0AB
:100EF00004DC012845D01C282FD12FE0C2282DD09A
:100F0000EF282AD1324601216846FFF761FF6D467E
:100F100032460121681CFFF77FFF9DF8010014B1E4
:100F200040F0020001E020F002008DF8010031469F
:100F3000012001F0F5F832460221684600F090F8F1
:100F4000304601F009F9324601216846FFF740FFBB
:100F500032460121681CFFF75FFF7CBD314601204E
:100F600001F0DEF80CB1402000E000208DF8000018
:100F700032460221684600F057F8304601F0ECF89E
:100F80007CBD204600F0C0FF7CBD00002DE9F0478D
:100F90001D46DDE9084A1646884681464FF08047DF
:100FA000B4F1485F36D0B4F1605F33D0BC4206D1B3
:100FB00001210846FFF790FF012001F027F81948AA
:100FC000016821F4400141F480010160016821F0D1
:100FD0007F4121430160016821F020025FEA08019E
:100FE00000D0012142EA4111016005634663C0F867
:100FF0003890416841F001014160BAF1000F02D020
:101000004168C907FCD1BC4209D1BDE8F0470020C6
:1010100000F0FCBF01210846FFF75EFFCFE7BDE807
:10102000F08700000070004038B50BA10B4C096838
:10103000009100788DF80100606820F01000606079
:10104000104600F0E9F90221684601F0A7F860684F
:1010500040F01000606038BD0100000000700040EA
:1010600038B50DA10D4C0968009101788DF801107B
:1010700040788DF80200606820F010006060104633
:1010800000F0CAF90321684601F088F8606840F072
:101090001000606038BD00000100000000700040DA
:1010A0002DE9FF4F0D46044683B0984601210020EC
:1010B000FFF768FC4948816C494A21F0F851114317
:1010C0008164484EC7144FF001094FF0306BB8F1FE
:1010D000000F3AD0B8F1010F56D0B8F1020F1ED070
:1010E000B8F1030F76D109EB154721463EA000F079
:1010F0001DFCD6F80480B246002609E004EB064049
:101100000123D8220021CDF80090FFF7ADFC761C1A
:10111000BE42F3D3DAF80410A1EB08022DE0214619
:101120003AA000F003FCB04676684FF0007909E081
:10113000CDF800903A4600212046059BFFF7E8FBDA
:1011400004F50064AC42F3D314E021463CA000F067
:10115000EDFBB0467668CA46D94609E0CDE9009A6B
:101160003A4600212046059BFFF7ACFB04F50064DE
:10117000AC42F3D3D8F80400821B07B02946BDE87F
:10118000F04F3DA000F0D2BB214642A000F0CEFBC4
:10119000B0467668082259460020FFF749FC07E070
:1011A0003A4604F100610598FFF75EF804F5006423
:1011B000AC42F5D3D8F804002946821B2EA000F0DB
:1011C000B5FBFFF78FFC07B00121BDE8F04F002011
:1011D000FFF782BE07B0BDE8F08F0000007000404E
:1011E00000000108380000204572617365205350EB
:1011F0004920666C61736820626C6F636B202830D5
:1012000078253678292E2E2E0D0A000050726F6731
:1012100072616D2073657175656E7469616C2064AF
:1012200061746120746F20666C61736820626C6FFA
:10123000636B20283078253678292E2E2E0D0A0053
:101240005665726966792053504920666C617368EF
:1012500020626C6F636B20646174612077697468CD
:1012600020444D412072656164202830782536780D
:10127000292E2E2E0D0A0000646F6E652E20282563
:1012800036642062797465733A202564206D732971
:101290000A0000005665726966792053504920663D
:1012A0006C61736820626C6F636B20283078253620
:1012B00078292064617461207769746820444D4DF9
:1012C00020726561642E2E2E0D0A000070B500F0AC
:1012D00067F84FF04025D5F8400120F0F000C5F840
:1012E00040010520FFF70AF91120FFF779FA0A20DB
:1012F000FFF704F90A20FFF773FA2048FFF7B2F965
:1013000011208407C4F834021D4E3046FFF73CF824
:1013100000224FF040713046FFF718FAE06B20F4DE
:101320007F00E063E06B40F4CC00E063154E304694
:10133000FFF72AF800224FF4E0413046FFF706FAA3
:101340000E20FFF721F8206B6FF30F002063206B56
:1013500042F2222108432063686A40F00400686278
:10136000A86A6FF30B00001D40F05500A86200F062
:101370006FF80020C4F8000170BD000000B0710BD0
:10138000103D80570300C05E044A012102EB106249
:10139000814010680843884310607047080000408F
:1013A000592110B5880716235FF08802C0F8001194
:1013B000C0F80031C0F80021D0F80041002CF5D071
:1013C00010BD000006498A691202FCD40A2804D123
:1013D0000D220A608A691202FCD40860704700007E
:1013E000000007400B4901280AD002280CD004282D
:1013F00005D1086820F4421040F4001008607047DE
:10140000086820F44210F9E7086820F4421040F41C
:101410008010F3E7007000400C4901280AD0022830
:101420000ED0042805D1086820F4421040F40210C0
:1014300008607047086820F4421040F40040F7E765
:10144000086820F4421040F48410F1E70070004076
:1014500010B5FFF7DFF80E4A4FF080439060D3F8E5
:10146000101201F00701022903D002F10C0050F81C
:101470002100D3F8201201F00F01491CB0FBF1F05C
:101480000449106008444900B0FBF1F0506010BD01
:101490000000002020A107001A48016841F47001F3
:1014A00001601948C16C21F00F0141F00801C164CD
:1014B0004FF08040D0F8981241F48021C0F8981283
:1014C000D0F8081241F00201C0F808120F49D1F813
:1014D000042102F0F732C1F80421D1F8082102F00A
:1014E000F732C1F80821D0F8081221F00201C0F843
:1014F00008124FF04020D0F8401121F0F001C0F860
:101500004011704788ED00E000C00040001004402A
:1015100010B50A4C4FF47A724FF00061204600F08B
:101520004BF8206840F0005020602120FFF7ACF914
:10153000206840F08040206010BD000000010540A0
:1015400010B588B00446202217496846FEF78CFE85
:101550001649174A88038C4204D1D0F81402C0F30C
:10156000022010E0944204D1D0F81402C0F30230FB
:1015700009E0104BD0F814029C4202D1C0F30240A3
:1015800001E0C0F30250022803D05DF8200008B04B
:1015900010BD8C4201D0944202D1FEF7D5FFF6E790
:1015A000FFF704F8F3E700005023000000000540B7
:1015B000000105400010054070B516460D46044672
:1015C000FFF7BEFF0023B6EB500F01D9022206E061
:1015D000B0FBF6F2130E02D0591CB2FBF1F21D4320
:1015E000256062605B1C5A43B0FBF2F070BD0000E6
:1015F0000C4800B5816811F0010F12D00121816003
:1016000000F086FE084841684FF47A72B1FBF2F3AD
:1016100002FB131121B905490A6882F001020A6030
:10162000406800BD0001054038000020C04900406E
:1016300010B50C4CE06910F4885F03D105E000BFE1
:1016400000F04AF9A0694004FAD5A169204611F0DA
:10165000710F05D0BDE810404FF4105100F088B86C
:1016600010BD00000000074010B51E48FFF78CFEBB
:101670001D4C4FF4E131204600F098F8142120462B
:1016800000F020F9A06820F01000A060A06840F0F1
:101690002000A060606840F61101084360602420CB
:1016A000FFF7F2F8FEF732FF014610A000F03EF916
:1016B000FEF734FF014614A000F038F9FEF738FFBA
:1016C000014617A000F032F9FEF73EFF01461AA0CE
:1016D00000F02CF9FEF76AFF0146BDE810401DA09E
:1016E00000F024B910000004000007400D0A434C2C
:1016F0004B5F47657443505546726571203A20250B
:1017000038640D0A00000000434C4B5F4765744885
:10171000585446726571203A202538640D0A00003D
:10172000434C4B5F4765744C585446726571203A80
:10173000202538640D0A0000434C4B5F4765745008
:10174000434C4B3046726571203A202538640D0AAF
:1017500000000000434C4B5F47657450434C4B31D5
:1017600046726571203A202538640D0A0000000099
:101770004A0503D570228261082282610A0503D5D9
:10178000426942F0010242618A0401D5064A82613F
:101790004A0401D51F224264090404D58021C16195
:1017A00040F20F3181637047010000012DE9FF41D4
:1017B0003C4B0F4604460FCB8DE80F0000263A49FC
:1017C00035464FF080408C4206D1D0F81412D0F844
:1017D0002002C1F301662AE034498C4206D1D0F8D8
:1017E0001412D0F82002C1F381662BE030498C42FC
:1017F00008D1D0F81C12D0F83002C1F3016600F015
:101800000F0521E02B498C4208D1D0F81C12D0F8EA
:101810003002C1F38166C0F3031515E026498C42FE
:1018200008D1D0F81C12D0F83002C1F30176C0F311
:10183000032509E021498C4206D1D0F81C12D0F8CA
:1018400030028E0FC0F30335002020630320E060D8
:10185000A0681B490840A060E846012E02D1FEF7AF
:10186000D9FE0190002F1AD058F826106D1CB1FB3C
:10187000F5F000EB5700B0FBF7F0801EB0F5803FAD
:101880000AD3B1FBF5F000EBC700B0FBF7F06FF047
:10189000010101EB101001E040F040506062BDE832
:1018A000FF810000202300000000074000100740D7
:1018B000002007400030074000400740005007402C
:1018C0000FFFF0FF026A22F0FF020A430262416842
:1018D00041F40061416070470E4810B50068C0B225
:1018E000782814D0582812D07F2804D9BDE8104099
:1018F00009A000F01BB85A2809D004DC312808D010
:10190000582806D103E0782801D07A2801D1FEF7C3
:10191000C7FF10BD00000740696E76616C696420E6
:10192000636F6D6D616E640D0A0000000FB4054BAE
:1019300010B503A9044A029800F018F810BC5DF82D
:1019400014FB0000DD1E00002C00002002E008C88F
:10195000121F08C1002AFAD170477047002001E029
:1019600001C1121F002AFBD1704700002DE9FF4F73
:101970008DB00F460546002606E025280BD0DDE990
:101980000F1290476D1C761C28780028F5D111B0F5
:101990003046BDE8F08F0024A246A1460122EC4962
:1019A00000E0044315F8013F203B02FA03F008422F
:1019B000F7D128782A2810D06FF02F022878A0F1CC
:1019C0003001092914D80AEB8A0102EB410144F0E5
:1019D000020400EB010A6D1CF0E701CF5FEA000A88
:1019E00003D544F40054CAF1000A44F002046D1C0B
:1019F00028782E2817D115F8010F44F004042A285E
:101A00000ED06FF02F022878A0F1300109290AD8F2
:101A100009EB890102EB410100EB01096D1CF2E7C2
:101A200057F8049B6D1C28786C280FD006DC4C28D6
:101A300017D068280DD06A2814D104E0742810D07B
:101A40007A280FD10DE044F400140AE044F4801425
:101A500001E044F440146978814202D104F5801415
:101A60006D1C6D1C2A786E2A1FD00CDC632A31D0C5
:101A700004DC002A8BD0582A11D1A3E0642A68D054
:101A8000692A0CD165E0732A2ED004DC6F2A73D04A
:101A9000702A04D19BE0752A6FD0782A6ED0104648
:101AA000DDE90F129047761C50E1C4F30250022882
:101AB00006D0032809D0042801CF09D0066045E1EB
:101AC00001CFF117C0E9006140E101CF06803DE19F
:101AD00006703BE117F8040B8DF8000000208DF82C
:101AE0000100EB46012003E057F804BB4FF0FF3044
:101AF00061074FF0000102D40DE008F101018846B2
:101B000049450FDA8045F8DB1BF808100029F4D1AD
:101B100008E008F1010188468142FADB1BF8081051
:101B20000029F6D1DDE90F23AAEB08008146214602
:101B300000F036F9304400EB080604E0DDE90F124E
:101B40001BF8010B9047B8F10108F7D2214648462F
:101B5000F7E00A21C4F302534FF0000B0891022B67
:101B600004D001CFC117032B09D00AE0FF1D27F0D5
:101B70000707F7E8020108E032E01FE020E000B2CA
:101B8000C117042B01D140B2C117031E71F100032C
:101B900007DA4FF0000CD0EB0C006CEB01012D23A9
:101BA00002E0230504D52B238DF82430012303E024
:101BB000E30701D02023F7E7984658E00A2110E018
:101BC00010210EE010204FF0000B08900CE01021C7
:101BD0004FF0000B44F004044FF00809089103E0B3
:101BE00008214FF0000B0891C4F30253022B04D0DC
:101BF00001CF0021032B06D006E0FF1D27F00707C9
:101C0000F7E8020103E080B2042B00D1C0B24FF02C
:101C1000000823072BD5702A07D0DDF820C08CF0F0
:101C2000100C5CEA0B0C05D00EE040238DF824303C
:101C3000012308E050EA010306D030238DF8243058
:101C40008DF8252002239846DDF820C08CF0080C82
:101C50005CEA0B0C0BD150EA010301D1630706D5F6
:101C600030238DF824304FF00108A9F10109582ADA
:101C700004D038A20B9208AA0A920BE03AA2F9E724
:101C80005B46089AFEF714FB0B9B9B5C0A9A521E5C
:101C90000A92137050EA0102F2D10A98ADEB0000EB
:101CA00000F1200B600702D524F4803401E04FF0EE
:101CB0000109D94502DDA9EB0B0000E0002000EB93
:101CC0000B0141440890AAEB010AE00306D4DDE9C8
:101CD0000F232146504600F063F806444FF00009F8
:101CE00008E009A911F80900DDE90F12904709F190
:101CF0000109761CC145F4DBE0030CD5DDE90F23B7
:101D00002146504600F04CF8064404E0DDE90F128D
:101D100030209047761C0899481E08900029F5DC71
:101D200008E00A980A990078491C0A91DDE90F1227
:101D30009047761CBBF10001ABF1010BF1DC2146B1
:101D40005046DDE90F2300F019F806446D1C1BE630
:101D50000928010030313233343536373839616281
:101D60006364656600000000303132333435363745
:101D70003839414243444546000000002DE9F04116
:101D8000044600251E461746880404D405E039465B
:101D90002020B0476D1C641EF9D52846BDE8F081AF
:101DA0002DE9F041044600251E469046C80301D5A2
:101DB000302700E02027880404D505E04146384656
:101DC000B0476D1C641EF9D52846BDE8F0810000BF
:101DD00070B5124D002105F50064002005EB81135C
:101DE00000EB01121A5400EB8116401CC0B2A25540
:101DF0004028F5D3491CC9B22029EED300224FF464
:101E00000064032321461046FFF74AF92146BDE846
:101E100070400223024A0020FFF742B94000002030
:101E20004008002010B54FF4006421460748FEF733
:101E300034FA0023054A21461846FFF731F92146B6
:101E4000BDE81040014800F003B800004008002041
:101E50002DE9F0410E460746002425E0214616A054
:101E6000FFF764FD00256019395C16A0FFF75EFDE1
:101E70006D1C102DF7DB15A0FFF758FD002560192C
:101E8000395CA1F120005F2803D211A0FFF74EFDBD
:101E900002E010A0FFF74AFD6D1C761E102DEEDB50
:101EA0000DA01034FFF742FD002ED7DCBDE8F04155
:101EB00009A0FFF73BBD00003078253034582020C2
:101EC00000000000253032582000000020200000D3
:101ED000256300002E0000000A00000010B5044633
:101EE000FFF770FA204610BDFFF7F0F9FFF7BCFBD3
:101EF000FEF78AFCFFF70CFBFEF7FCFDFFF768FF1F
:101F0000FFF790FFFEE700002DE9FC4107463E4C3D
:101F100005208DF80000606820F01000606001204E
:101F2000FFF77AFA0321684600F038F90120FFF73D
:101F300059FA012101A800F095F8606840F01000FE
:101F4000606035268DF800609DF80450606820F0D0
:101F5000100060600120FFF75FFA0321684600F07F
:101F60001DF90120FFF73EFA012101A800F07AF8DF
:101F7000606840F0100060600121084600F0D0F871
:101F800001208DF800009DF804008DF8015017B174
:101F900040F0020001E020F002008DF802006068CD
:101FA00020F0100060600120FFF736FA0321684638
:101FB00000F0F4F8606840F010006060012100203B
:101FC00000F0AEF88DF80060606820F010006060EE
:101FD0000120FFF721FA0321684600F0DFF8012015
:101FE000FFF700FA012101A800F03CF8606840F01A
:101FF0001000606042F20F7000BF011EA0F10100EE
:10200000FADCBDE8FC810000007000407CB50546AC
:102010000122114601A8FEF7DBFE114C45B1382024
:102020008DF80000606820F010006060012007E07B
:10203000FF208DF80000606820F010006060042030
:10204000FFF7EAF90121684600F0A8F8606840F05F
:10205000100060600122114601A8FEF7B9FE7CBDA8
:1020600000700040F8B50024002954D02A4B1029F4
:1020700001D304220AE00C2901D3032206E0082937
:1020800001D3022202E0042922D301221D6825F493
:1020900040051D601D6845F4F8551D601D681F4E04
:1020A00025F4C04506EB423635431D605D6845F0BA
:1020B00001055D605D68ED07FCD107E003EB82057B
:1020C000ED680619091F521E3560241D002AF5D13E
:1020D000002920D00429CAD21A6822F440021A60CA
:1020E0001A686FF0FF0522F4F85205EBC1252A4368
:1020F0001A601A6822F4C0421A605A6842F001025B
:102100005A605A68D207FCD11A6900920A462044E4
:102110006946FEF7A9F8F8BD0070004000E0FFFF37
:1021200038B50022009208B1062000E00420094CD6
:102130008DF80000606820F0100060600846FFF72E
:102140006BF90121684600F029F8606840F0100042
:10215000606038BD007000402DE9F84380464FF0C4
:10216000FF3500240C4E4FF47A770DE042460121F2
:102170006846FEF72DFE9DF8000040F30000401C6D
:1021800001D0002505E0641C3068B0FBF7F0A042E8
:10219000ECD82846BDE8F88300000020F8B50025FB
:1021A00000295BD02E4C102901D304220AE00C290F
:1021B00001D3032206E0082901D3022202E0042908
:1021C00028D3012213461F464FEA87074619A7F175
:1021D0000407274436685B1E3E62A1F1040105F145
:1021E0000405F0D1B2B1236823F4400323602368CF
:1021F00043F4F853236023681A4E23F4C04306EBDC
:10220000423213432360626842F0010262606268F6
:10221000D207FCD1002921D00429C4D20E4641198D
:1022200032466846FEF720F800982062206820F4C5
:102230004000206020686FF0FF0220F4F85002EBAD
:10224000C62108432060206820F4C04020606068F8
:1022500040F0010060606068C007FCD1F8BD00007C
:102260000070004000E0FFFF10B50446016810A0B8
:10227000FFF75CFB11A06168FFF758FB12A0A16893
:10228000FFF754FB13A0E168FFF750FB14A021698E
:10229000FFF74CFB15A06169FFF748FB16A0A16989
:1022A000FFF744FBE169BDE8104016A0FFF73EBB15
:1022B000723020203D20307825780A0072312020AD
:1022C0003D20307825780A00723220203D20307879
:1022D00025780A00723320203D20307825780A00C6
:1022E000723132203D20307825780A006C7220202F
:1022F0003D20307825780A00706320203D2030781A
:1023000025780A00707372203D20307825780A0005
:1023100002484168491C41607047000038000020B5
:10232000001BB7000000000000800000001BB70089
:10233000001BB7000000000000800000001BB70079
:10234000001BB7000000000000800000001BB70069
:10235000001BB7000080000000000000000000002B
:10236000000000001027000000000000001BB70064
:102370009023000000000020400000004C190000E5
:10238000D023000040000020001800005C1900006D
:10239000001BB7000C000000001BB700001BB700BB
:1023A0000080000000000000102700000000000076
:1023B0000000000000000000001BB700000000004B
:1023C000EFC21C7F010000000000000000000000C0
:0400000500000225D0
:00000001FF
